:100000000C9495010C94B2010C94B2010C94B201C1
:100010000C94B2010C94B2010C94B2010C94B20194
:100020000C94B2010C94B2010C94B2010C94B20184
:100030000C94B2010C94B2010C94B2010C94B20174
:100040000C94B2010C94B2010C94B2010C94B20164
:100050000C94B2010C94B2010C94B2010C94B20154
:100060000C94B2010C94B20107634236B79BD8A737
:100070001A39685618AEBAAB558C1D3CB7CC5763CD
:10008000BD6DEDFD753EF6177231BF000000803F7B
:1000900008000000BE922449123EABAAAA2ABECD97
:1000A000CCCC4C3E00000080BEABAAAAAA3E000009
:1000B0000000BF000000803F000000000008417801
:1000C000D3BB4387D1133D190E3CC3BD4282AD2B38
:1000D0003E68EC8276BED98FE1A93E4C80EFFFBE30
:1000E00001C4FF7F3F000000000005000000000089
:1000F0000500005F000005000700070005147F14DD
:100100007F1405242A7F2A1205231308646205360A
:100110004956205005080703000005001C22410035
:10012000050041221C000514083E08140508083E7D
:1001300008080500B0700000050808080808050058
:1001400060600000052010080402053E5149453E4C
:100150000500427F40000572494949460521414951
:100160004D33051814127F10052745454539053CC8
:100170004A4949310541211109070536494949369E
:1001800005464949291E05000014000005004034B9
:10019000000005081422410005141414141405412C
:1001A00022140800050201590906053E415D594E19
:1001B000057C1211127C057F49494936053E4141B3
:1001C0004122057F4141413E057F49494949057F1B
:1001D00009090909053E41415173057F0808087F57
:1001E0000500417F4100052040413F01057F081483
:1001F0002241057F40404040057F020C027F057F81
:100200000408107F053E4141413E057F090909066A
:10021000053E4151215E057F0919294605264949B8
:1002200049320501017F0101053F4040403F051F64
:100230002040201F053F4038403F056314081463E9
:1002400005030478040305615149454305007F41D6
:100250004100050204081020050041417F0005040B
:100260000201020405404040404005070B00000029
:10027000052054547840057F2844443805384444C8
:10028000442805384444287F053854545418050040
:10029000087E09020518A4A49C78057F0804047848
:1002A0000500447D4000052040403D00057F1028AA
:1002B00044000500417F4000057C04780478057CFB
:1002C0000804047805384444443805FC18242418EC
:1002D0000518242418FC057C080404080548545417
:1002E00054240504043F4424053C4040207C051C64
:1002F0002040201C053C4030403C05442810284448
:10030000054C9090907C054464544C44050008369C
:100310004100050000770000050041360800050493
:100320000204080405007F417F0011241FBECFEFA7
:10033000D8E0DEBFCDBF11E0A0E0B1E0E8EBF4E132
:1003400002C005900D92A034B107D9F725E0A0E4D2
:10035000B1E001C01D92A734B207E1F70E94620626
:100360000C945A0A0C940000FF920F931F93CF93A2
:10037000DF93C82FF62E072F142F0E948F0588E7D2
:100380000E94A2058C2F0E94A205CF2DD02FCE0156
:10039000810F911D8C01C017D10721F089910E9416
:1003A000A205F9CFDF91CF911F910F91FF900C948F
:1003B0009A05CF93DF931F92CDB7DEB7898341E0D3
:1003C000BE016F5F7F4F80E00E94B4010F90DF910C
:1003D000CF910895CF93DF9381E20E94D90180E00D
:1003E0000E94D9018FE70E94D90182E20E94D901BF
:1003F00080E00E94D90187E00E94D901C0E0D0E0EE
:10040000BE0184E0660F771F8A95E1F7695B7E4F36
:1004100040E180E40E94B4012196C034D10581F707
:10042000DF91CF91089587FF809340010895803434
:1004300010F4809341010895CF93C62F0E941302B8
:100440008C2FCF910C9417020E9480058EEA0E9497
:10045000D90185ED0E94D90180EF0E94D90188EA77
:100460000E94D9018FE30E94D90183ED0E94D90136
:1004700080E00E94D9018DE80E94D90184E10E94A8
:10048000D90180E40E94D90180E20E94D90180E074
:100490000E94D90181EA0E94D90188EC0E94D90109
:1004A0008AED0E94D90182E10E94D90181E80E946F
:1004B000D9018FEF0E94D90189ED0E94D90181EF06
:1004C0000E94D9018BED0E94D90180E20E94D901DE
:1004D00084EA0E94D90186EA0E94D9018FEA0E942B
:1004E000D90160E080E00E941C02E0E4F1E01682A5
:1004F000158214821182108208958091410186959F
:1005000086958695089567FD17C04034A8F49093AA
:10051000430180934201609344014093450150E0C0
:10052000CA01019797FD079623E0959587952A952F
:10053000E1F78F5F8093460108952F923F924F928B
:100540005F926F927F928F929F92AF92BF92CF9263
:10055000DF92EF92FF920F931F93CF93DF93CDB76C
:10056000DEB727970FB6F894DEBF0FBECDBFF09071
:100570004001E09041018052909144012091460158
:10058000929F900111242F5F3F4F682F6203A001BB
:10059000639F500D11245C834B831A018FEF281A3F
:1005A000380AE0914201F0914301E40FF51F1491E4
:1005B0009E2D9770C92EDE2C00E088E090E0DC01D3
:1005C000AC19B109BA83A98380914601081708F0D4
:1005D00061C06D2D8F2D0E941C029101200F311DD5
:1005E000A9014150510960914201709143018091EC
:1005F000460190E070904001A0914101A695A6951A
:10060000A695B0E02D015694542C44245794479459
:10061000260F371F612CF201E95BFE4F2F01E62DFB
:10062000E70DAE2EB12C611629F1F90184900C2C46
:1006300001C0880C0A94EAF78D82002391F0FB0137
:10064000E40FF51F9490E92DF0E0098002C0F595C4
:10065000E7950A94E2F7FF83EE83E829ED83480FDC
:10066000591FA40CB51C9D80F50190826394280F3E
:10067000391FD5CFE0934001B695BA2FAA27B79579
:10068000A795A95BBE4FAA0DBB1D1C9228E0D20EF8
:100690000F5F9ACF4E2D46954695469550E0809136
:1006A00045012E2D30E0280F311DC901019797FD1E
:1006B000079663E0959587956A95E1F7481759077E
:1006C00009F452C03FE33D1508F44EC06D2D8F2D47
:1006D0000E941C02B0904001809141018695869550
:1006E000869590E0BC017695762F6627779567957D
:1006F0004091460150E0AB81BC81A00FB11DE0915B
:100700004201F0914301EA0FFB1F00E028E030E0D6
:10071000D901AC19B1096D01A02FAB0D2A2F30E022
:100720000117A9F0260F371FA491B0E04D010C2C42
:1007300002C0959487940A94E2F7295B3E4FD90151
:10074000AC908A288C920F5FE40FF51FE5CFA09341
:1007500040019695982F882797958795895B9E4F9E
:10076000FC01E20FF31F108281E08F0D6E2D810FCF
:1007700027960FB6F894DEBF0FBECDBFDF91CF91A5
:100780001F910F91FF90EF90DF90CF90BF90AF90AF
:100790009F908F907F906F905F904F903F902F90A1
:1007A0000C941C02CF93DF93EC018991882369F0AC
:1007B000909140012091440130E0290F311D2038F3
:1007C00031051CF40E949D02F0CFDF91CF91089576
:1007D000CF93DF93FC018491EF01882381F0219670
:1007E000909140012091440130E0290F311D2038C3
:1007F00031052CF40E949D02FE018491EECFDF9121
:10080000CF9108950F931F93CF93DF93CDB7DEB7AA
:100810002C970FB6F894DEBF0FBECDBF61157105E2
:100820008105910521F480E30E949D02D5C06115E8
:100830007105810500E8900709F4CEC0FE013196EC
:100840002CE0DF011D922A95E9F720E3298397FF29
:100850000BC08B019C0144275527BA01401B510B4B
:10086000620B730B91E003C0AB01BC0190E080E32D
:10087000282F8F5F41151AEC51071AE961071BE316
:10088000710724F05A5C6A497B43F2CF2A8380E3E4
:10089000282F8F5F411531EE530735EF630735E0A1
:1008A000730724F0515E654F7540F2CF2B8380E3D0
:1008B000282F8F5F4038A6E95A07A8E96A07710513
:1008C0002CF04058564968497109F2CF2C8380E3D7
:1008D000282F8F5F4034B2E45B07BFE06B077105E0
:1008E0002CF0405452446F407109F2CF2D8380E3C5
:1008F000282F8F5F403A06E8500701E06007710536
:100900002CF0405A564861407109F2CF2E8380E3A3
:10091000282F8F5F403117E25107610571052CF0D8
:100920004051574261097109F3CF2F8380E3282F8B
:100930008F5F483E33E05307610571052CF0485E38
:10094000534061097109F3CF288780E3282F8F5F17
:1009500044365105610571052CF044565109610971
:100960007109F4CF298780E3282F8F5F4A30510522
:10097000610571052CF04A50510961097109F4CFE4
:100980002A87405D4B8720E0DF01A20FB11D8C91CB
:10099000803311F42F5FF8CF992331F02150DF011C
:1009A000A20FB11D8DE28C939AE0921B80E030E0A3
:1009B000BF01680F711DAB01420F531FDA014C914B
:1009C000DB014C938F5F981798F7DF01A80FB11DDB
:1009D0001C92CF010E94D2032C960FB6F894DEBF72
:1009E0000FBECDBFDF91CF911F910F9108958F92D0
:1009F0009F92AF92BF92CF92DF92EF92FF92CF93EE
:100A00006B017C01C42F20E030E0A9010E940407A3
:100A1000811112C080E30E949D028EE20E949D021D
:100A200080E3CF91FF90EF90DF90CF90BF90AF9099
:100A30009F908F900C949D0220E030E040E05FECAE
:100A4000C701B6010E94F10787FD50C020E030E0E9
:100A500040E05FE4C701B6010E94040787FF46C07B
:100A600020E030E0A901C701B6010E94040787FF1A
:100A700007C0F7FAF094F7F8F0948DE20E949D0217
:100A8000C701B6010E9409070E9402048EE20E947B
:100A90009D026C2F70E080E090E00E943F079B0178
:100AA000AC0160E070E080E291E40E9463084B01D9
:100AB0005C01C701B6010E9410070E943F079B011D
:100AC000AC01C701B6010E949706A50194010E94DE
:100AD000F6070E940907CF91FF90EF90DF90CF902B
:100AE000BF90AF909F908F900C940204CF91FF9095
:100AF000EF90DF90CF90BF90AF909F908F90089530
:100B00003D9A3C9A1092B90082E08093B80084E04C
:100B10008093BC0008958091B900887F089584EA8D
:100B20008093BC008091BC008770E1F38091B90094
:100B3000887F089585ED8093BC008091BC0082FD84
:100B4000FCCF08958093BB0084E88093BC00809123
:100B5000BC008770E1F38091B900887F089584EC30
:100B60008093BC008091BC008770E1F38091BB0052
:100B7000089584E88093BC008091BC008770E1F305
:100B80008091BB000895FF920F931F93CF93DF9343
:100B9000D82FC62F042FF52E122F0E948F058830D4
:100BA00021F0803111F0C0E023C08D2F880F0E940A
:100BB000A205883111F08032B1F78C2F0E94A20576
:100BC000883239F4C02FDF2DCE01810F911D8C01A9
:100BD00008C0803341F7F6CF89910E94A205883280
:100BE00021F4C017D107C1F702C08033D1F3C1E0AF
:100BF0000E949A058C2F90E0DF91CF911F910F9169
:100C0000FF900895CF92DF92FF920F931F93CF939F
:100C1000DF93D82FC62F6A01022F0E948F058830DC
:100C200011F08031F1F58D2F880F0E94A2058831D7
:100C300011F08032B1F58C2F0E94A205883211F09C
:100C4000803379F50E948F05883011F0803149F5A5
:100C50008D2F880F81600E94A205877F803409F55F
:100C6000F12C10E00150110901C0F394CF2DD0E018
:100C7000C017D1075CF40E94AF05F601EC0FFD1F11
:100C800080838091B900807F803579F3CC0DDD1DA4
:100C90000E94B90588838091B900807FC1E08035CA
:100CA00009F0C0E00E949A058C2F90E0DF91CF916F
:100CB0001F910F91FF90DF90CF900895880F809340
:100CC000BA0008950E94240248E065E08AEE90E0B0
:100CD0000E94830260E08BE00E941C0280E091E0B1
:100CE0000E94D20364E180E00E941C0282E191E054
:100CF0000E94D20360E280E00E941C028CE191E03D
:100D00000E94D2036CE280E00E941C0287E291E024
:100D10000E94D20368E380E00E941C0284E391E019
:100D20000E94D2030E94EA0180E090E008955058AA
:100D3000BB27AA270E94AF060C94B7070E94A907F9
:100D400038F00E94B00720F039F49F3F19F426F4E0
:100D50000C94A6070EF4E095E7FB0C94A007E92F8E
:100D60000E94C80758F3BA176207730784079507EC
:100D700020F079F4A6F50C94EA070EF4E0950B2E1A
:100D8000BA2FA02D0B01B90190010C01CA01A001DD
:100D90001124FF27591B99F0593F50F4503E68F138
:100DA0001A16F040A22F232F342F4427585FF3CF79
:100DB000469537952795A795F0405395C9F77EF44A
:100DC0001F16BA0B620B730B840BBAF09150A1F093
:100DD000FF0FBB1F661F771F881FC2F70EC0BA0F19
:100DE000621F731F841F48F4879577956795B795A1
:100DF000F7959E3F08F0B0CF9395880F08F099279C
:100E0000EE0F9795879508950E947C0708F481E07E
:100E100008950E9410076894B1110C94EB0708958F
:100E20000E94D00788F09F5798F0B92F9927B751A3
:100E3000B0F0E1F0660F771F881F991F1AF0BA957E
:100E4000C9F714C0B13091F00E94EA07B1E00895EB
:100E50000C94EA07672F782F8827B85F39F0B93FDD
:100E6000CCF3869577956795B395D9F73EF4909531
:100E70008095709561957F4F8F4F9F4F0895E894AF
:100E800009C097FB3EF490958095709561957F4FD2
:100E90008F4F9F4F9923A9F0F92F96E9BB27939580
:100EA000F695879577956795B795F111F8CFFAF490
:100EB000BB0F11F460FF1BC06F5F7F4F8F4F9F4FC1
:100EC00016C0882311F096E911C0772321F09EE81F
:100ED000872F762F05C0662371F096E8862F70E085
:100EE00060E02AF09A95660F771F881FDAF7880F5F
:100EF0009695879597F90895990F0008550FAA0BB5
:100F0000E0E8FEEF16161706E807F907C0F012161C
:100F10001306E407F50798F0621B730B840B950B1F
:100F200039F40A2661F0232B242B252B21F4089574
:100F30000A2609F4A140A6958FEF811D811D089511
:100F400097F99F6780E870E060E008959FEF80EC7C
:100F5000089500240A94161617061806090608951F
:100F600000240A9412161306140605060895092E85
:100F70000394000C11F4882352F0BB0F40F4BF2BF4
:100F800011F460FF04C06F5F7F4F8F4F9F4F089534
:100F900057FD9058440F551F59F05F3F71F047952A
:100FA000880F97FB991F61F09F3F79F0879508950F
:100FB000121613061406551FF2CF4695F1DF08C02E
:100FC000161617061806991FF1CF8695710561054B
:100FD00008940895E894BB2766277727CB0197F9F3
:100FE00008950E947C0708F48FEF08950E94090875
:100FF0000C94B7070E94A90738F00E94B00720F0B0
:10100000952311F00C94A0070C94A60711240C94BE
:10101000EB070E94C80770F3959FC1F3950F50E04E
:10102000551F629FF001729FBB27F00DB11D639F9A
:10103000AA27F00DB11DAA1F649F6627B00DA11D40
:10104000661F829F2227B00DA11D621F739FB00DE6
:10105000A11D621F839FA00D611D221F749F332756
:10106000A00D611D231F849F600D211D822F762FEF
:101070006A2F11249F5750409AF0F1F088234AF0CC
:10108000EE0FFF1FBB1F661F771F881F9150504038
:10109000A9F79E3F510580F00C94A0070C94EB0734
:1010A0005F3FE4F3983ED4F3869577956795B795BF
:1010B000F795E7959F5FC1F7FE2B880F911D9695D9
:1010C000879597F90895FA01EE0FFF1F30962105D5
:1010D0003105A1F16115710561F48038BFE39B070B
:1010E00049F168949038810561F08038BFEF9B0723
:1010F00041F099234AF5FF3FE1053105210519F13A
:10110000E8940894E795D901AA2329F4AB2FBE2FC0
:10111000F85FD0F310C0FF5F70F4A695E0F7F739E1
:1011200050F019F0FF3A38F49F779F930DD00F904D
:1011300007FC9058089546F00C94A60760E070E014
:1011400080E89FE308954FE79F775F934F933F9326
:101150002F930E945E092F913F914F915F910E94C2
:10116000F6070C94BB0829F416F00C94A0070C9415
:10117000EA070C94A6070E94D007A8F39638A0F7B8
:1011800007F80F92E8942BE33AEA48EB5FE70E94F6
:101190000C080F920F920F924DB75EB70F920E94FC
:1011A000A609E8E6F0E00E94ED084F915F91EF910B
:1011B000FF91E595EE1FFF1F49F0FE57E0684427B9
:1011C000EE0F441FFA95E1F74195550B0E94200957
:1011D0000F9007FE0C9414090895DF93CF931F938B
:1011E0000F93FF92EF92DF927B018C01689406C00F
:1011F000DA2EEF010E940908FE01E894A5912591DD
:10120000359145915591A6F3EF010E94AF06FE017D
:101210009701A801DA9469F7DF90EF90FF900F91A2
:101220001F91CF91DF9108959B01AC0160E070E0C8
:1012300080E89FE30C94DA090C94A0070C944C0A04
:101240000E94D007D8F39923C9F3940F511DA3F33B
:101250009150504094F059F0882332F0660F771F78
:10126000881F91505040C1F79E3F51052CF7880FC1
:10127000911D9695879597F908955F3FACF0983E3C
:101280009CF0BB27869577956795B79508F4B16074
:101290009395C1F7BB0F58F711F460FFE8CF6F5F6C
:1012A0007F4F8F4F9F4FE3CF0C94EB0716F00C94BA
:1012B0004C0A0C94A60768940C94A0070E94D007CF
:1012C000A8F39923C1F3AEF3DF93CF931F930F934A
:1012D000FF92C92FDD2788232AF02197660F771FF9
:1012E000881FDAF720E030E040E85FEB9FE38839C1
:1012F00020F0803E38F021968F770E949806E0E932
:10130000F0E004C00E949806EDEBF0E00E94ED08CA
:101310008B01BE01EC01FB2E6F5771097595771F8C
:10132000880B990B0E94410728E132E741E35FE314
:101330000E940908AF2D9801AE01FF900F911F91F7
:10134000CF91DF910E94AF060C94B707FA01DC0140
:10135000AA0FBB1F9B01AC01BF5728F422273327DC
:101360004427507820C0B75190F4AB2F0024469505
:1013700037952795011CA395D2F3002071F0220F19
:10138000331F441FB395DAF30ED00C9497066130E7
:101390007105A0E88A07B94630F49B01AC016627C5
:1013A000772788279078309621F0208331834283F5
:1013B000538308950E94EE090C94B7070E94B0076A
:1013C00058F00E94A90740F029F45F3F29F00C94DF
:1013D000A00751110C94EB070C94A6070E94C807B4
:1013E00068F39923B1F3552391F3951B550BBB2754
:1013F000AA2762177307840738F09F5F5F4F220F99
:10140000331F441FAA1FA9F335D00E2E3AF0E0E88F
:1014100032D091505040E695001CCAF72BD0FE2FD9
:1014200029D0660F771F881FBB1F2617370748076D
:10143000AB07B0E809F0BB0B802DBF01FF27935825
:101440005F4F3AF09E3F510578F00C94A0070C9442
:10145000EB075F3FE4F3983ED4F386957795679565
:10146000B795F7959F5FC9F7880F911D969587955A
:1014700097F90895E1E0660F771F881FBB1F621779
:1014800073078407BA0720F0621B730B840BBA0B37
:10149000EE1F88F7E09508959F3F31F0915020F4BA
:1014A000879577956795B795880F911D9695879540
:0814B00097F90895F894FFCFAD
:1014B8003133206F757420323032302031323A3077
:1014C8003000543A2033302E3020430052483A201E
:1014D80035302E30202500503A203932302E342035
:1014E80068506100483A20313533382E30206D007D
:00000001FF
